:1000000012C022C043C01FC01EC01DC01CC01BC0E8
:100010001AC019C018C017C016C015C014C013C02C
:1000200012C011C010C011241FBECFE5D4E0DEBF46
:10003000CDBF10E0A0E6B0E001C01D92A336B1072D
:10004000E1F798D0ACC1DCCF1F920F920FB60F92A0
:1000500011248F939F9380916000880F809360009C
:100060009091620080916000892341F490989F9163
:100070008F910F900FBE0F901F901895909A9F919F
:100080008F910F900FBE0F901F9018951F920F9297
:100090000FB60F9211248F939F9381E0809360009D
:1000A0009091620080916000892341F490989F9123
:1000B0008F910F900FBE0F901F901895909A9F915F
:1000C0008F910F900FBE0F901F901895FF920F9376
:1000D0001F93CF93DF9314E0C8ECD0E088B381275F
:1000E00088BB24EF31E0CE010197F1F72150304079
:1000F000D1F70AD19F708F5F9F4081F7C29A20EDA0
:1001000037E048EC50E0CA010197F1F72150304048
:10011000D1F700E010E084E0F82EC8ECD0E088B31E
:100120008F2588BB24EF31E0CE010197F1F72150F4
:100130003040D1F7E9D0BC019F708F5F9F40B9F08C
:100140000F5F1F4F0E31110554F3C29A28E833E1B7
:1001500048EC50E0CA010197F1F721503040D1F747
:10016000CB01DF91CF911F910F91FF90089500E097
:1001700010E0D5CF4F925F927F928F929F92AF9275
:10018000BF92CF92DF92EF92FF920F931F93DF9374
:10019000CF9300D000D0CDB7DEB7889A81B3837FEC
:1001A00081BBBA9A85B78C6085BF85B7836085BFF0
:1001B0008BB780648BBF8BB780688BBF78949FD0E0
:1001C0008FEF9FE09A8389839C838B8323E0422E69
:1001D000512C4C0E5D1EC20160E070E042E050E028
:1001E000B8D04E010894811C911CC40162E070E0FB
:1001F00042E050E0AED0EE24FF2477247A9490E2DF
:10020000A92E9EE4B92E4FC0C29887E00B3F180775
:1002100029F08BE00B3F180709F052C067010894E2
:10022000C11CD11C88ECE816F10409F44CC033FD64
:1002300004C08B819C812823392332FD04C089812D
:100240009A8128233923922F432F4170822F817066
:10025000880F482B9C7F492B31FD08C0809161009D
:1002600090E08770907004970CF44E7F21FD08C0D9
:100270008091610090E08770907004970CF44D7F3E
:1002800027FD02C026FF406825FD02C024FF406212
:1002900040936200C5010197F1F7809161008F5F83
:1002A00080936100760130D09C018C011F708FE03B
:1002B0000F3F180709F0A8CFC29ACC24DD24B7CF8E
:1002C000CC24DD24B4CF7092620000DF9C600B5F11
:1002D000174061F09A838983C40162E070E042E0D4
:1002E00050E047D04FEF2FEF3FE0CECF9C838B8382
:1002F000C20160E070E042E050E03BD0F3CFBB9A37
:10030000BC9ABD98C59A0895C39840E050E020E09B
:1003100030E06AE1C498862F8A95F1F786B382951A
:100320008695877090E081709070022E02C0880FD1
:10033000991F0A94E2F7482B592BC49A862F8A9565
:10034000F1F72F5F3F4F2031310521F7C39ACA01E2
:100350000895DC01CB01FC01E199FECF06C0FFBB93
:10036000EEBBE09A31960DB20D9241505040B8F775
:100370000895DC01CB0102C02D9105D041505040C1
:10038000D8F70895262FE199FECF9FBB8EBB2DBBDA
:100390000FB6F894E29AE19A0FBE01960895F89488
:0203A000FFCF8D
:00000001FF
